:020000040800F2
:1000000098060020450100088D0E00088F0E00089C
:10001000910E0008930E0008950E000800000000E5
:10002000000000000000000000000000970E000823
:10003000990E000800000000934800089748000847
:100040005F0100085F0100085F0100085F01000810
:100050005F0100085F0100085F0100085F01000800
:100060005F0100085F0100085F0100085F010008F0
:100070005F0100085F0100085F0100085F010008E0
:100080005F0100085F0100085F0100085F010008D0
:100090005F0100085F0100085F0100085F010008C0
:1000A0005F0100085F0100085F0100085F010008B0
:1000B0005F0100085F0100085F0100085F010008A0
:1000C0005F0100085F0100085F0100085F01000890
:1000D0005F0100085F0100085F0100085F01000880
:1000E0005F0100085F0100085F0100085F01000870
:1000F0005F0100085F0100085F0100085F01000860
:100100005F0100085F0100085F0100085F0100084F
:100110005F0100085F0100085F0100085F0100083F
:100120005F0100085F0100085F0100085F0100082F
:10013000DFF80CD004F040FD00480047530D0008E4
:10014000980600200648804706480047FEE7FEE77D
:10015000FEE7FEE7FEE7FEE7FEE7FEE7FEE7FEE777
:1001600011020008310100080CB500220192009232
:100170005248016841F4803101604FF4A063016886
:1001800001F4003100910199491C0191009911B9C4
:1001900001999942F3D10168890302D501210091A7
:1001A00000E000920099012930D145490A6842F0E7
:1001B00010020A600A6822F003020A600A6842F02C
:1001C00002020A604168416041684160416841F44F
:1001D00080614160416821F47C114160416841F4D3
:1001E000E8114160016841F0807101600168890196
:1001F000FCD5416821F003014160416841F00201F2
:1002000041604168C1F381010229FAD10CBDABE71D
:1002100010B52A48016841F0010101604168294A8E
:10022000114041600168284A11400160016821F4D1
:1002300080210160416821F4FE0141604FF41F01FB
:100240008160FFF7E4FF21494FF00060086010BDB6
:1002500010B51A4A506800F00C011D4B1D480029CA
:100260000ED004290ED008290ED003605168194A17
:10027000C1F30311121D515C0268CA40026010BD37
:100280000360F3E70360F1E7516801F4701153680C
:1002900003F48033022404EB914133B153689B0390
:1002A00007D50D4B59430160E0E70B4B5943016003
:1002B000DCE7074B59430160D8E70000001002401B
:1002C000002002400000FFF8FFFFF6FE08ED00E00E
:1002D00000127A000000002000093D002A4908436E
:1002E0002A490860704770B50F23C278012601784B
:1002F000002A1ED0254A126802F4E062C2F5E062CC
:10030000120AC2F10404D3404578A54082781A400D
:100310002A43120101F1E02181F80024007800F065
:100320001F018E404009800000F1E020C0F800610C
:1003300070BD01F01F0086404809800000F1E020F8
:10034000C0F8806170BD124A114001430F48001F80
:10035000016070470D4A121D002903D01168014346
:100360001160704711688143116070474FF0E021C0
:10037000042804D0086920F0040008617047086967
:1003800040F00400086170470000FA050CED00E041
:1003900080FFFF1F10B59C49884209D1012104202C
:1003A00000F07DFA0021BDE81040042000F077BA8B
:1003B0009649884209D10121082000F070FA0021F5
:1003C000BDE81040082000F06ABA9149884209D17E
:1003D0000121102000F063FA0021BDE81040102038
:1003E00000F05DBA8B49884209D10121202000F03C
:1003F00056FA0021BDE81040202000F050BA86498E
:10040000884209D10121402000F049FA0021BDE8CD
:100410001040402000F043BA8049884209D10121B0
:10042000802000F03CFA0021BDE81040802000F060
:1004300036BA7B4988420AD184150121204600F052
:100440002EFA2046BDE81040002100F028BA10BD69
:1004500010B50121084600F022FA0021BDE8104045
:10046000012000F01CBA2DE9F0410022CC7804F004
:100470000F03E40601D58C7823430C784FF00F0767
:1004800014F0FF0F4FF0010C1CD005680CFA02F4B9
:100490000E882640A64211D1960007FA06F825EAF2
:1004A000080503FA06F848EA0505CE78282E02D09A
:1004B000482E02D002E0446100E00461521C082A88
:1004C000E4D305600A88FF2A1ED94568002202F19C
:1004D00008060CFA06F40E882640A64210D19600B3
:1004E00007FA06F825EA080503FA06F848EA0505BA
:1004F000CE78282E00D14461CE78482E00D10461F8
:10050000521C082AE3D34560BDE8F0814FF6FF7125
:100510000180022181700421C170704702460020D1
:1005200092680A4200D001207047806880B270470C
:1005300002460020D2680A4200D001207047C068FD
:1005400080B270470161704741617047002A01D055
:100550000161704741617047C160704741F480326A
:1005600082618161826181698069704710B52D4B1C
:100570001A684FF68074224042EA0010084318605F
:1005800010BD2949C8617047F0B5264C002801DA32
:10059000E36900E06368C0F30346420D120185B2CF
:1005A000C0F301579540032F07D0C2020CD5032298
:1005B000B240934343F0706209E023F070626368D5
:1005C00023F07063636002E0AB4343F0706201B1FB
:1005D0002A43002801DAE261F0BD6260F0BD10B587
:1005E0008A07120F0F23934021F003040D49214481
:1005F0008C689C438C608B68904003438B6010BD7B
:100600000949DC310860704700080140000C0140D6
:10061000001001400014014000180140001C01407E
:10062000002001400000014000002042B448016861
:1006300041F0010101604168B24A11404160016826
:10064000B14A11400160016821F4802101604168D4
:1006500021F4FE0141604FF41F0181607047A849F9
:100660000A6822F480320A600A6822F480220A6052
:10067000B0F5803F07D0B0F5802F03D1086840F473
:10068000A02008607047086840F480300860704718
:100690000346002059099A4A01290AD002290AD0A2
:1006A000516A03F01F02012393400B4200D0012046
:1006B00070471168F5E7116AF3E718B5002000905C
:1006C0004FF4A0643120FFF7E3FF0099491C00912B
:1006D0000099A14201D00028F4D03120FFF7D8FFC3
:1006E00008B1012018BD002018BD854A116821F00D
:1006F000F80141EAC0001060704784490860704703
:100700007F4B5A6822F47C120843104358607047AC
:100710007E49086670477A4A516821F00301014317
:10072000516070477648406800F00C007047744A8A
:10073000516821F0F001014351607047704A5168DF
:1007400021F4E0610143516070476D4A516821F422
:10075000605141EAC00050607047694A002903D0E7
:10076000517A014351727047517A814351727047F7
:100770006649D83108607047614A516821F44041A8
:100780000143516070475E49002220310A7001F830
:100790002029012805D0042802D1052081F8200055
:1007A0007047012081F82000704759490860704760
:1007B00053490A6A02430A6270475549443908603E
:1007C000704710B54E4A516801F00C01514B002999
:1007D00027D0042927D0082927D00360516801F0C9
:1007E000F00109094C4B5C5C0168E14041605468D0
:1007F00004F4E064240A1C5D21FA04F48460546863
:1008000004F46054E40A1B5DD940C160526802F4EC
:100810004042920B404B1B1F9A5CB1FBF2F101610D
:1008200010BD0360DAE70360D8E7516801F4701186
:10083000536803F48033022404EB914133B15368CD
:100840009B0307D5354B59430160C7E7334B5943E9
:100850000160C3E72F4B59430160BFE7284A0029D5
:1008600003D051690143516170475169814351611E
:100870007047234A002903D0916901439161704771
:1008800091698143916170471D4A002903D0D16964
:100890000143D1617047D1698143D1617047184AE2
:1008A000002903D0D1680143D1607047D1688143EA
:1008B000D1607047124A002903D0116901431161C8
:1008C00070471169814311617047114940390860CF
:1008D00070470E49C86470470949C8717047084895
:1008E000416A41F080714162704701460020044A2C
:1008F00092680A4200D0012070470149887270470F
:10090000001002400000FFF8FFFFF6FE0000424228
:100910008004424200127A001800002000093D00C5
:1009200010B5E14988420AD101218C032046FFF726
:10093000B6FF2046BDE810400021FFF7B0BFDB49FD
:1009400088420AD101214C042046FFF7B3FF20461C
:10095000BDE810400021FFF7ADBFD54988420AD15C
:1009600001218C042046FFF7A5FF2046BDE810407A
:100970000021FFF79FBFCF4988420AD10121CC0453
:100980002046FFF797FF2046BDE810400021FFF703
:1009900091BFC94988420AD101210C052046FFF7C1
:1009A00089FF2046BDE810400021FFF783BF10BD3E
:1009B00030B585B004460D46208A4CF6FF710840DC
:1009C000E98801432182A0894EF6F3110840A988E5
:1009D0002A8911436A8902431143A181A08A4FF6F3
:1009E000FF410840A9890143A1826846FFF7E9FE5B
:1009F000AD48844201D1039800E00298A18909041E
:100A000008D500EBC00101EB001029684900B0FBDC
:100A1000F1F007E000EBC00101EB0010296889004C
:100A2000B0FBF1F06422B0FBF2F109010B096FF0A9
:100A300018056B4300EB8300A3891D044FF03203BC
:100A400007D503EBC000B0FBF2F000F0070008434D
:100A500006E003EB0010B0FBF2F000F00F000843DB
:100A6000208105B030BD4FF4165101600021818016
:100A7000C18001810C2242818181704710B5038AB7
:100A80004FF2FF0213400A884C8822438C88C988A1
:100A90000C4322431A43028210BD00210180418091
:100AA0008180C1807047002904D0818941F40051C0
:100AB00081817047818921F400518181704710B58F
:100AC00040F66A13C1F3421301F01F040121A14053
:100AD000012B07D0022B07D014303AB102680A4329
:100AE000026010BD0C30F8E71030F6E702688A4368
:100AF000026010BD002A03D0828A0A4382827047B6
:100B0000828A8A4382827047028A22F00F0202821E
:100B1000028A0A4302827047828922F4006282813B
:100B200082890A4382817047002904D0818941F07B
:100B3000020181817047818921F002018181704722
:100B4000028A22F020020282028A0A43028270474D
:100B5000002904D0018A41F4804101827047018A52
:100B600021F4804101827047C1F308018180704700
:100B70008088C0F308007047818941F001018181BC
:100B80007047028BD2B20283028B42EA01210183B9
:100B90007047028B02F47F420283028B0A43028376
:100BA0007047002904D0818A41F02001818270477A
:100BB000818A21F0200181827047002904D0818A36
:100BC00041F0100181827047818A21F010018182F9
:100BD0007047002904D0818A41F008018182704762
:100BE000818A21F0080181827047002904D081891F
:100BF00041F40041818170478189C1F30E018181F7
:100C00007047002904D0818A41F4006181827047D5
:100C1000818A21F4006181827047828A22F0040275
:100C20008282828A0A4382827047002904D0818AA4
:100C300041F0020181827047818A21F002018182A4
:100C400070470246002012880A4200D001207047F7
:100C50008A05C9430180704770B5002440F66A12C6
:100C6000C1F3421301F01F05012606FA05F2012B1C
:100C70000CD0022B0DD0838A1340090A8E400088C5
:100C800030400BB100B10124204670BD8389134070
:100C9000F3E7038A1340F0E740F66A120A0A0121DB
:100CA0009140C94301807047003801400044004032
:100CB00000480040004C004000500040364C4FF4CB
:100CC000FA75216881F02001216034A003F086FFCD
:100CD000284601F0FAFBF4E700B587B00420ADF830
:100CE000080037A00590394801904FF480500490D7
:100CF00001A9374801F034F907B000BD264C4FF484
:100D00007A75216881F00101216032A003F066FF4D
:100D1000284601F0DAFBF4E700B587B00520ADF80E
:100D2000080035A00590374801904FF4805004909A
:100D3000274801A9001F01F013F9DDE710B54FF4B2
:100D40004070FFF7CBFA00F071F9BDE8104000F0F9
:100D5000B8B810B5FFF7F2FF2BA003F03FFF03F088
:100D60009BFB20B134A003F039FF012010BDFFF739
:100D7000D3FF20B137A003F031FF012010BDFFF7F2
:100D8000ABFF20B13AA003F029FF012010BD03F012
:100D900072FB002010BD00000C0C0140C8CECEF14B
:100DA00032D4CBD0D0D6D02CC3BF3530306D73B455
:100DB000F2D3A1D2BBB4CED0C5CFA2A3A10A00006A
:100DC00054657374325F5461736B0000BD0C00088E
:100DD0002C000020C8CECEF131D4CBD0D0D6D02C30
:100DE000C3BF313030306D73B4F2D3A1D2BBB4CEB7
:100DF000D0C5CFA2A3A10A0054657374315F5461BA
:100E0000736B0000FD0C0008D5E2CAC7D2BBB8F670
:100E10005BD2B0BBF05D2D53544D3332463130338D
:100E2000B0D4B5C04C6974654F53D2C6D6B2CAB5FA
:100E3000D1E9A3A10A0A00004C6974654F5320BA96
:100E4000CBD0C4B3F5CABCBBAFCAA7B0DCA3A10A60
:100E50000000000054657374315F5461736BC8CE39
:100E6000CEF1B4B4BDA8CAA7B0DCA3A10A000000AB
:100E700054657374325F5461736BC8CECEF1B4B4F1
:100E8000BDA8CAA7B0DCA3A10A0000007047FEE716
:100E9000FEE7FEE7FEE770477047000008B54FF435
:100EA000A060FFF71BFA25208DF8000001208DF8C7
:100EB00001008DF802008DF803006846FFF713FA71
:100EC00008BD10B586B001210420FFF7D2FC012136
:100ED0008803FFF7CEFC4FF40070ADF81400182023
:100EE0008DF8170003208DF816004E4C05A92046FA
:100EF000FFF7B9FA2115ADF8141004218DF8171079
:100F000005A92046FFF7AFFA4FF4E1300190002029
:100F1000ADF80800ADF80A00ADF80C00ADF810000F
:100F20000C20ADF80E00404C01A92046FFF740FD13
:100F3000FFF7B4FF012240F225512046FFF7BFFD25
:100F400001212046FFF7AFFD06B010BD10B50446E5
:100F50002046FFF709FE80212046FFF772FE002899
:100F6000F9D010BD2DE9F04107460D461646002484
:100F700005E0295D3846FFF7E9FF641CE4B2B4429E
:100F8000F7D340213846FFF75CFE0028F9D0BDE8D2
:100F9000F08170B506460D4600243046295DFFF706
:100FA000D5FF641C285D0028F7D140213046FFF7AB
:100FB00048FE0028F9D070BD70B50546080ACCB2CD
:100FC00001462846FFF7D0FD80212846FFF739FE6D
:100FD0000028F9D021462846FFF7C6FD8021284683
:100FE000FFF72FFE0028F9D070BD70B504460E4DF6
:100FF000E1B22846FFF7B8FD80212846FFF721FE21
:101000000028F9D0204670BD10B5074C202120469D
:10101000FFF717FE0028F9D02046BDE81040FFF783
:10102000A7BD0000000801400038014038B501218B
:101030000820FFF71EFC2020ADF8000010208DF8DE
:10104000030003208DF802000F4C69462046FFF78D
:101050000AFA0121ADF8001069462046FFF703FAAD
:101060000221ADF8001069462046FFF7FCF9202167
:101070002046FFF767FA01212046FFF763FA0221B5
:101080002046FFF75FFA38BD000C014010B5002480
:101090004FF480713A48006802F0B2FD3949486067
:1010A000002807D0486800EBC40040600060641C62
:1010B000202CF7D310BD70B504460D46314E706834
:1010C00000EBC50000F055F828B14FF00040316842
:1010D000E84008433060706800EBC500016848686C
:1010E00060602160486804604C6070BD70B5D0E9F4
:1010F00000121160D0E900215160002141600160BF
:10110000A0F128041F4DE088696801EBC00000F0E1
:1011100030F8002806D0A1794FF00040C840296877
:101120008143296070BD17490868002806D0B0FACD
:1011300080F0496801EBC0004068704700207047AC
:10114000014600200F4A526802EBC102516801E0DB
:10115000401C49688A42FBD1704710B50023002427
:101160001846FFF7EDFF04445B1C202BF8D3204604
:1011700010BD4168814201D10120704700207047B5
:10118000F8000020300000200EB508200090F94D36
:101190004FF0FF3633466A4601A9E86801F0C9FE00
:1011A0000028F7D100980828F4D101980028F1D040
:1011B00000F05EFBDDE90110884700F059FBE9E72C
:1011C00000B587B0182101A803F0C2FBAFF24700B9
:1011D00001904FF434700490E7A005900020ADF822
:1011E000080001A9E74800F0BBFE07B000BDF8B554
:1011F0004021E54803F0ACFBDE4D0027AF614FF422
:10120000E0710E46E148006802F0FAFC0446ECB1D9
:101210003146204603F09CFB2C616C6127812146FE
:101220001C34012020810C602146401C80B21C34FB
:101230001028F7D30820CF4A002300900C32102149
:10124000184601F070FD20B1D148F8BDD048001F0C
:10125000F8BDFFF7B5FF10B1CD48401CF8BD002028
:10126000F8BD2DE9F04F0024671EBC464FF0100872
:10127000C14600260169C160017A01F00F05DFF85F
:1012800008B3BC4A4FF0030E5BF82510D2F818A043
:10129000BEEB517F62D141F000414BF8251021F0A7
:1012A0007F420023B84951F823B02BF07F4131B37E
:1012B000AB4224D0BEEB9B7F21D1914206D3B1FB40
:1012C000F2FB02FB1B1BBBF1000F09D0914216D2AF
:1012D000B2FBF1FB01FB1B2BBBF1000F08D00EE0B2
:1012E000B1FBF2FBBB450AD2B1FBF2F7984606E030
:1012F000B2FBF1FBE34502D2B2FBF1FC99465B1C69
:101300009BB2102BCED39B49B8F1100F0A6919D0AC
:101310005146C8EBC80302EB830206E0CB681E44CB
:101320000B891589AB4202D009680029F6D1A9B30F
:1013300009698A1B0169B2FBF1F301FB1322891AC7
:10134000C16036E0B9F1100F33D00021C160C9EBA4
:10135000C90102EB8104D4F800A02DE00222B2EB17
:10136000517F26D141F000414BF8251051460CE049
:101370000A6903699A4207D10A7A02F00F025BF800
:101380002220BEEB927F02D009680029F0D129B15A
:101390000022C2600C46D1F800A00DE009E0DAF8A6
:1013A0000C10C268914207D8511AC1605446DAF84D
:1013B00000A0BAF1000FF2D1C0F800A0BAF1000FFE
:1013C00005D0DAF80C10C268891ACAF80C1024B1DA
:1013D000206002210171BDE8F08F66498861F8E75D
:1013E00070B50022634CA16900291BD001E00A46B8
:1013F00009688142FBD10B681BB1DD68CE683544BA
:10140000DD6082B10B68136000220A6001220A715C
:10141000007A5D4900F00F0051F8202022F00042D0
:1014200041F8202070BD0A68A261EDE77CB5514DFE
:10143000AC6928E02068A861A0690090606901900B
:10144000002308226946E86801F09EFD607920B11A
:10145000012811D0022813D014E0204600F0F5F93D
:1014600020894FF6E071884202D21030208109E0D5
:1014700000F00F00208105E02046FFF7F2FE01E0BA
:1014800001202071AC69002C02D0E0680028D1D086
:101490007CBD10B537488069002805D0C168491E59
:1014A000C16001D1FFF7C2FF002010BD0021314A09
:1014B000906906E08379012B0AD0C36819449060D3
:1014C00000680028F6D128B1C06808441060704751
:1014D0005060F8E74FF0FF30704770B500230E689A
:1014E000026814E0D468CD68AC4205D82B1BCB60F1
:1014F00013461268002AF5D10A601AB1D468CD6883
:10150000641BD46033B119600B463146366800293C
:10151000F0D170BD0160F7E770B5164C6168002925
:101520001DD02268904200D91046CB680025834226
:1015300002D3181AC8600BE0101AC860A06838B14E
:101540000560A1690B48001DFFF7C7FF6068A06137
:10155000A069C06808B9FFF769FF6560A56070BD44
:101560000246002003498969CB681844914211D092
:101570000968F9E7380000205377745F5461736B92
:10158000000000006C00002000010020F800002096
:101590000B03000270472DE9F05F8046DDE90AB6D3
:1015A0000C9F0D4691469A46B8F1000F07D04DB1F9
:1015B000012D07D0022D05D0AA48BDE8F09FA9480B
:1015C000401EFAE7B9F1000F08D0BAF1000F08D0B9
:1015D00056B1012E08D0A3480F30EEE7A148801E77
:1015E000EBE7A048401CE8E7012F03D017B19D4866
:1015F0001030E2E702F0FEFF9B494C69B4B122686B
:101600004A6102F0FFFFC4F818906571C4F81080B9
:1016100000202060E060C4F814B0A671E7710120DA
:1016200020712089AAF800000020C6E702F0EAFF36
:101630008C48801CC1E72DE9F04106460025DFF803
:1016400024824FF6F07008F10308864202D3404628
:10165000BDE8F08102F0CEFF074606F00F00824998
:10166000C0EBC000096901EB80042089B04204D0BE
:10167000384602F0C7FF4046EAE7E179012923D165
:101680006179012920D1794B00F00F0153F8210035
:1016900040F0804043F8210022690A21B2FBF1F6B4
:1016A00001FB162282B9227A40F0005002F00F02AC
:1016B00043F822002269B2FBF1F1227A61F31700AC
:1016C00002F00F0243F82200207950B101280ED019
:1016D000022809D0634D0C35384602F093FF2846A6
:1016E000B6E7604D2D1DF7E72046FFF779FE20464F
:1016F000FFF7B7FDF0E72DE9F04105460024594F0B
:101700004FF6F070FF1C854201D33846A0E702F087
:1017100071FF064605F00F005349C0EBC000096990
:1017200001EB80000189A94204D0304602F06AFF33
:1017300038468DE7017951B101290BD002290CD02F
:10174000484C0C34304602F05DFF204680E7454CA3
:10175000241DF7E7434C0B34F4E7FFF741FEF1E7B4
:101760002DE9F04105460E460024DFF8F8804FF6DB
:10177000F07008F10308854201D3404668E796B14E
:1017800002F038FF074605F00F003749C0EBC000F4
:10179000096901EB80000189A94207D0384602F0AF
:1017A00031FF404654E72F480E3051E7027952B1DD
:1017B000012A0BD0022A0CD02A4C0C34384602F0F5
:1017C00021FF204644E7274C241DF7E7254C0B3426
:1017D000F4E7FFF7C5FE3060F0E72DE9F04105467C
:1017E0000024DFF880804FF6F07008F1030885428E
:1017F00001D340462CE702F0FDFE074605F00F003E
:101800001949C0EBC000096901EB80063089A84284
:1018100004D0384602F0F6FE404619E7317951B15E
:1018200001290ED0022909D00E4C0C34384602F0A2
:10183000E9FE20460CE70B4C241DF7E73046FFF786
:10184000CFFD304600F001F8F0E707494A69026031
:10185000486100210171007A044A00F00F0042F84B
:101860002010704702030002380000200001002011
:10187000344903C9704734484FF47A710068B0FBAB
:10188000F1F0704710B5411C07D04FF47A72A0FBFD
:101890000201002303F012F810BD4FF0FF3010BD1D
:1018A00010B54FF47A72A0FB0201002303F006F892
:1018B00010BD2DE9F0470E46174600281CD0DEB1BA
:1018C000D7B1D0E900892048006803F0C7F80022AA
:1018D0001E4B03F054F804460D464846414603F0BB
:1018E000CAF822462B4603F04AF803F0D0F83860D5
:1018F00031600020BDE8F0871548FBE72DE9F0478F
:101900000E46174600281BD0D6B1CFB1D0E90089CA
:101910000D48006803F0A2F800220E4B03F02FF8E8
:1019200004460D464846414603F0A5F822462B469C
:1019300003F025F803F0ABF8386031600020D9E7F8
:101940000348D7E7A80000200000002000408F4097
:101950001000000280842E4130B500200021FE4A94
:10196000958814686A1802F01F0204EBC2025368DB
:10197000934209D0303B59B10A469B6B02EB4312AC
:1019800008B1904200D91046491C2029EAD330BD45
:101990002022F2E7FEE770B504460D4620794007A5
:1019A00011D504F128000646FFF7A0FBA08820F01F
:1019B00004002946E58040F00400A0803046BDE8E0
:1019C0007040FFF778BBE58070BDF0B4024601F0CF
:1019D0001F034809002B00D1401E916B01F0784194
:1019E0000143DD4C2079184400F01F0060F3DF61F3
:1019F0009163216801EBC00302F1300158689842FD
:101A000003D1F0BC184600F04FBF3038946B866BA2
:101A100024F0784726F07845BD420BD87D1B04F0B2
:101A2000784425439563406B303800F130049C4284
:101A3000ECD10AE0836B926B23F0784322F078427A
:101A40009A1A06F078431A438263F0BC303000F0F3
:101A50002BBF30B4826BD10EBF4B1B6803EBC103AD
:101A6000416B994209D08B6822F0784223F0784488
:101A7000224403F078431A438A6030BC303000F0CF
:101A800015BF2DE9F0410027B3490879401C00F04B
:101A90001F008880096801EBC0067468B44249D011
:101AA000303C3DE0A588A06B400103D0A06B401EF8
:101AB000A06339E004F1300000F0F8FE28070BD5F0
:101AC000A08820F00800A08004F1280000F0EEFEBD
:101AD0000020A061E06115E0680504D5A08820F42D
:101AE0008060A0800EE0A80408D504F1280000F072
:101AF000DDFEA08820F40050A08003E0A08820F044
:101B00002000A080A80709D4A08840F00400A0808D
:101B1000E18804F12800FFF7CEFA01277468303C11
:101B200004F13000B042BDD1002F03D0BDE8F04138
:101B300002F0A4BDBDE8F081C10601D587A07047C1
:101B4000410701D587A07047810601D587A070475E
:101B5000010705D5400601D586A0704788A07047CB
:101B6000810701D588A07047810405D5400601D5BD
:101B700087A070478BA070478DA0704770B5764ED8
:101B8000C0EBC000403E00EB4004F16801EB84056F
:101B9000EB681868B0F1CC3F0CD088A003F01EF8B9
:101BA000F06800EB8400416A86A003F017F84FF05C
:101BB000FF3070BD181D51F824104FF0CA3400E0FA
:101BC000001D814202D90268A242F9D0A968C01A58
:101BD000081A70BDF0B587B078A002F0FFFF824808
:101BE00002F0FCFF75A002F0F9FF80A002F0F6FF02
:101BF00072A002F0F3FF7E4802F0F0FF6FA002F047
:101C0000EDFF7AA002F0EAFF0025534E403E3DE092
:101C1000C5EBC500F16800EB400001EB80042079C2
:101C2000C00732D165A002F0D9FF2069FFF7A6FFF7
:101C30000246A088FFF780FFE3682768A16CCDE922
:101C4000037302920591A168CDE90001E388694818
:101C50002269616A02F0C2FFA06940B157A002F098
:101C6000BDFFA069C18864A002F0B8FF07E053A0DF
:101C700002F0B4FF4FF6FF715FA002F0AFFF4FA07C
:101C800002F0ACFF59A002F0A9FF6D1C306985423B
:101C9000BED307B00020F0BD2DE9F0412E4D5420F9
:101CA000403D2C69641C4443554E2146306801F088
:101CB000A7FFE860534F00284CD0214602F048FEB1
:101CC00005F1280040600060083040600060083086
:101CD0004060006000244FF00108C4EBC400E968D4
:101CE00000EB400001EB8001A1F804800C611A4870
:101CF0002831103800F0D8FD641C0F2CEDD94FF0BE
:101D00000008C5F824802869E968C0EBC00000EB32
:101D1000400001EB800010492039086004610A6826
:101D20001120908009682020C880FFF7AFF94FF498
:101D300080710D46306801F063FF044620006CD0CE
:101D4000294602F005FE04480460A0F80480002043
:101D5000646059E05FE060E09400002052756E6EB0
:101D6000696E6700526561647900000044656C61CA
:101D70007900000050656E6454696D654F7574009C
:101D800050656E640000000053757370656E6400EA
:101D9000517565756550656E6454696D654F7574F0
:101DA00000000000517565756550656E64000000A7
:101DB000496D706F737369626C6500005B455252C8
:101DC0005D20000043555252454E54207461736BA0
:101DD00020257320737461636B206F766572666C67
:101DE0006F77210A00000000045100080A0000007B
:101DF00080500008885100083078252D3778000081
:101E0000F8000020000200032460401C0834202851
:101E10009ED300208EE638468CE638468AE62DE9C9
:101E2000F04707460D464FF0FF38002F0BD065B145
:101E3000286960B1286860B1A988FD4A1F290AD9BC
:101E40001046BDE8F087FB48FBE7FB48F9E7FB4895
:101E5000F7E7FB48F5E704D1FA49884201D010467C
:101E6000EFE7F949F94AE868511A884202D9F1487E
:101E70001930E6E710B94FF43470E8600821E868DB
:101E800002F0B8FAE860B0F5987F02D2E948401E47
:101E9000D7E702F0AFFB81460026DFF8B4A310E0DD
:101EA000DAF80400A0F1280400F000FDE84804F18D
:101EB0002801083800F0F1FCE348E16801F0B7FEC2
:101EC000E660E34800F0FCFC0028E9D0E048083870
:101ED00000F0F6FC10B1D74C0A343CE0DC4808387E
:101EE0004068A0F1280400F0E1FC484602F08AFBBB
:101EF000D4F810A00822D448E96801F096FE814683
:101F00005FEA09001DD04A465046E96802F0D3FB5B
:101F10002060A8682062C4F80C90E868A060A66100
:101F2000E6610220A080A888E08028686061C4F88B
:101F30003C80A664286960622665C7F800A000207E
:101F40007FE702F057FB8146C14804F128010838B9
:101F500000F0A3FCBF4C484602F054FB204670E75B
:101F600070B504462046FFF75AFF00282AD1B84D25
:101F70002068383DC0EBC000E96800EB400001EB91
:101F8000800402F037FB0646A08820F0020040F0F3
:101F90000400A080E18804F12800FFF78CF8FFF727
:101FA000C2F805F1200128384860EA695AB12A8848
:101FB0004AB90968814206D0304602F023FB02F09C
:101FC0005BFB002070BD304602F01CFB002070BDA2
:101FD00000B587B0182101A802F0BAFC9948019019
:101FE0004FF4A06004909CA005901F20ADF808005D
:101FF000974801A92438FFF7B3FF0028FFD107B0A5
:1020000000BD934818380068002801D00069704767
:10201000884870478E4818384068002801D0006909
:102020007047844870470020894918390968002999
:1020300000D0486A704710B5854C183C2068C068CD
:102040000068B0F1CC3F09D0AFF2902002F0C6FD9D
:1020500020680269416A83A002F0C0FD6068C2681E
:102060000168914203D980681044884213D2AFF2CC
:10207000B42002F0B3FD60680269416A83A002F0F7
:10208000ADFDAFF2C82002F0A9FD6068C26801682A
:1020900087A002F0A3FD6068924C018A227804EBCD
:1020A00042025180416A2078202204EB4010163011
:1020B00002F035FC2078002104EB401080F8351048
:1020C0002078401CC0B220700A2804D121706078AA
:1020D00040F0800060705E4838388068002802D088
:1020E000BDE81040004710BD10B54FF4AB717D48FE
:1020F00002F02EFC7B490A204870AFF2C50154481B
:10210000383841600021816010BD2DE9F047064656
:102110004FF0FF39DFF83881A8F13808D8F81400FB
:10212000864202D143480D308BE6D8F8180086422B
:1021300002D140481A3084E6D8F81000864201D314
:102140003C487EE602F056FA0746C6EBC600D8F8D1
:102150000C1000EB400001EB8004A588E80706D0D6
:10216000344CE41C384602F04DFA204669E6E80695
:102170004FF0000A04D5B8F8000008B1A8F800A094
:10218000680708D504F12800FEF7B0FFA08820F00A
:102190000400A08009E005F0080005F400510843A0
:1021A00003D004F1280000F081FB15F0600F02D08D
:1021B0002046FFF74EFCA08820F0020040F001000E
:1021C000A080C4F83C90C4F848A0FEF7ACFFDFF84C
:1021D00080902838A9F11809C9F8040020794FF037
:1021E0000105C00623D504F12801194800F05CFB65
:1021F000D8F81000D8F80C10C0EBC00000EB40007D
:1022000001EB8000C9F800000661D9F80010A08831
:102210008880D9F80000E168C160616A4162A580E8
:10222000384602F0EFF902F027FA002009E65BE0F9
:10223000030200020702000201020002050200027E
:1022400004020002951900089806002000500020A2
:102250008C0000200002000349646C65436F7265C6
:102260003030300043555252454E54207461736BE8
:102270002049443A2025733A256420737461636BC6
:10228000206F766572666C6F77210A00484947486F
:10229000455354207461736B2049443A2025733AA6
:1022A0002564205350206572726F72210A0000006D
:1022B00048494748455354207461736B20537461F7
:1022C000636B506F696E7465723A203078257820A0
:1022D000546F704F66537461636B3A203078257881
:1022E0000A00000040010020A58004F12801FA48FE
:1022F00000F0D3FAF948E16801F099FCC4F80CA0A9
:10230000384602F07FF900209BE570B5F24DC0EB36
:10231000C000303D00EB4000E96801EB80046169DA
:10232000206A8847002028802069BDE87040ECE6DC
:1023300070B50F2801D9EA4870BDE74EC0EBC00068
:10234000303E00EB4000F16801EB800402F052F9EE
:102350000546A088C10702D0E14CE41C03E08107D8
:1023600006D4DF4CA41C284602F04CF9204670BD70
:1023700020F00200A08042F22A41084216D140F02B
:102380000400A080E18804F12800FEF794FEF069C3
:1023900030B1284602F036F902F070F9002070BD25
:1023A000FEF7C1FECC49283810394860284602F0B3
:1023B00029F9002070BD2DE9F0410546C64E303E9A
:1023C0007069854202D1C6480D3023E5B069854267
:1023D00002D1C3481A301DE53069854201D3C04897
:1023E00018E5C5EBC500F16800EB400001EB800487
:1023F00002F000F90746A088C10702D0B84CE41CDF
:1024000009E0810702D5B64C641C04E0C10607D57B
:10241000318829B1B34C384602F0F4F82046F9E48B
:10242000400707D504F12800FEF760FEA08820F0E1
:102430000400A080A08840F00200A080A6481038C8
:1024400000680069A84206D1384602F0DBF802F0C5
:1024500015F90020DEE4384602F0D4F80020D9E473
:1024600070B59D4C103CA4F12002206812690169EE
:10247000914201D39A4870BD0079400701D40020F1
:1024800070BD02F0B7F805462068C088FEF758FE18
:10249000012814D92068283000F008FA20688188C3
:1024A00041F0040181802068C1882830FEF703FED6
:1024B000284602F0A7F802F0E1F8002070BD284697
:1024C00002F0A0F88648093070BD70B5064602F0EB
:1024D000DDF910B18348083870BD7F483038008876
:1024E00010B17F48C01D70BDEEB102F083F8054603
:1024F000794C103C20682830FEF7F8FD2068818870
:1025000021F00401818031462068FFF75EFA2068DF
:10251000818841F020018180284602F073F802F0A2
:10252000ADF8002070BDBDE8704099E770B56A490C
:102530004FF6FF7530390A69904201D3284670BDC5
:10254000C0EBC000C96800EB400001EB800402F062
:1025500051F82179C90703D002F054F8284670BD1C
:10256000E48802F04FF8204670BD2DE9F0410D4699
:102570001F2D02D95A48001F4CE4574930394A6987
:10258000904202D156480D3044E48A69904202D10B
:1025900053481B303EE40A69904201D3504839E465
:1025A000C0EBC000C96800EB400001EB800402F002
:1025B00021F80746A088C10705D0384602F022F866
:1025C0004748C01C26E400F0040686B104F1280048
:1025D0008046FEF78BFDA08820F00400E58040F0E7
:1025E0000400A08029464046FEF765FD00E0E58036
:1025F000384602F007F80EB102F040F8002009E476
:1026000001463548103800680069AEE72DE9F04111
:1026100007460E46154630481038046804F1280075
:102620008046FEF763FDA08820F004004146304359
:10263000A080384600F038F9681C09D0A08840F026
:102640004000A08029462046BDE8F041FFF7BDB913
:10265000BBE670B504460D4604F12800064600F0BE
:1026600025F9A088A843A080400606D52046FFF79C
:10267000F0F9A08820F04000A080A088810708D44D
:1026800040F00400A080E1883046BDE87040FEF7CD
:1026900012BD70BD10B501F0ADFF0F4A303A118880
:1026A000491C1180BDE8104001F0ACBF10B501F02D
:1026B000A1FF094A303A118819B1491E89B2118027
:1026C00019B1BDE8104001F09DBF01F09BFFBDE8CE
:1026D000104001F0D3BF00008400002098060020C5
:1026E00007020002150200032DE9F04107460C46DF
:1026F000002C05D076490869874204D3754864E602
:102700007448801F61E6C7EBC700C96800EB400052
:1027100001EB800501F06EFF06462879C00705D061
:10272000304601F06FFF6B48C01C4EE62868E0643D
:10273000A888A084E888E084A8682064E8686064C9
:10274000D5E91012E86BC4E90D122063A86CE063B0
:10275000A86908B1C08800E01420A062E86908B147
:10276000406800E00F20E06227621F222046696A6D
:1027700002F0F9F80027E777D5E90210084420F0C5
:102780000700A064E16C401A2065636C1868B0F122
:10279000CC3F08D0781E60650120A065304601F06E
:1027A00031FF002011E6181D4FF0CA3C00E0001D6B
:1027B000814202D902686245F9D0A968C01A081A94
:1027C0006065A765EAE770B50C46002C05D0404966
:1027D0000A69904204D33F4870BD3E48801F70BDD7
:1027E000C0EBC000C96800EB400001EB800501F0C0
:1027F00001FFAA88D10704D001F004FF3548C01CAE
:1028000070BD226001F0FEFE002070BD70B5044670
:102810000D460A2C00D30A3C9DB101F0EBFE0646A2
:102820002D4800EB44014988296000EB4411163122
:102830002022281D02F073F8304601F0E3FE00204C
:1028400070BD2448801F70BDFFF7C4B92048C0691F
:1028500070471F4820304068002801D00069704749
:102860001C48704710B51A490A69904201D30020EC
:1028700010BDC0EBC000C96800EB400001EB800454
:1028800001F0B8FE2179C90703D001F0BBFE00209A
:1028900010BD01F0B7FE606A10BD42684A60086072
:1028A00042681160416070470068F6E7D0E90012A5
:1028B0001160D0E900215160002141600160704742
:1028C0004168814201D1012070470020704700001B
:1028D00054000020070200024001002010B5094802
:1028E000D0E902134A1C43F10001C0E9022100F0C3
:1028F00011F8FFF7C6F8BDE81040FEF7CABD014861
:1029000000687047A00000200D48002101600A21E6
:10291000C18070470B480A4A01680B481368006879
:102920008B4204D01160D388411E19449180918854
:1029300080B2814203D100201060FFF791BD704743
:10294000B400002074000020A80000202DE9F04110
:10295000CB4840600060CB484FF4B471006801F090
:102960004FF9C74D2D1F286098B1002400262F1D58
:10297000296804EB440001EBC0014C6001F8086BCE
:10298000386800F06EF9641C0F2CF1D30020BDE80C
:10299000F081BD48FBE7F8B50546002D15D001F0E4
:1029A00029FE0646B64800F063F9002480B130469F
:1029B00001F028FEB44DED1CB44900232A46B4A012
:1029C000009401F035FD2846F8BDAF48801CF8BDE5
:1029D000AB484068D0E900121160416850F80829FE
:1029E00051604480012101708482046100F108017A
:1029F0004960096040682860304601F003FE00200D
:102A0000F8BD2DE9F843DFF88082A04D002708F1DA
:102A100001080F2802D3444629461FE0984900EBDD
:102A20004000091F096801EBC00401F0E3FD064600
:102A3000207870B104F10800804600F019F908B15F
:102A40006088A0B1304601F0DDFD8F4C0934294685
:102A500004E0304601F0D6FD4446294600232246D4
:102A60008BA0009701F0E4FC2046BDE8F8834146C6
:102A7000834800F0F6F82770304601F0C3FD0020CF
:102A8000F3E72DE9F84388467F4D00266D1C7F4F04
:102A90000F2808D300232A4639467DA0009601F06E
:102AA000C7FC2846E1E7764900EB4000091F0968AA
:102AB00001EBC00401F09EFD8146207840B101F099
:102AC000E5FE88B1484601F09DFD6F48401DCCE70A
:102AD000484601F097FD00232A4639466CA000962F
:102AE00001F0A6FC2846C0E76E480568608848B13A
:102AF0002169A94210D1401C6080484601F082FD46
:102B00000020B2E7012060802561E888A082484665
:102B100001F078FD0020A8E7B8F1000F0ED0624860
:102B2000008888B1584CA41D60A002F057F861A03D
:102B300002F054F8484601F065FD25E0484601F0F2
:102B400061FD5148001D90E7EC612069E988C28869
:102B50008A4201D9FEF71FFF4246082104F108000E
:102B6000FFF754FD484601F04DFD01F087FD28793F
:102B7000400612D501F03EFDA98821F04001A98050
:102B800001F040FD404CE41D00232246394640A0A0
:102B9000009601F04DFC204667E7002065E72DE92F
:102BA000F8430646364906EB4600091F096801EB63
:102BB000C00401F01FFD0546DFF8CC800027DFF8D8
:102BC000CC9008F101080F2E14D2207890B135482E
:102BD0000168628812B12069884217D0284601F046
:102BE00011FD00234246494629A0009701F020FC30
:102BF00040463AE7284601F005FD00234246494693
:102C000023A0009701F014FC40462EE7521E110449
:102C1000090C618004D0284601F0F4FC002024E770
:102C2000C288A18A8A4201D0FEF7B5FE04F10800ED
:102C300000F01EF820B1284601F0E4FC002014E763
:102C4000E0682838012161802061C188A182C761C4
:102C50000821FFF7FEFC284601F0D4FC01F00EFD30
:102C6000ECE742684A600860426811604160704762
:102C70004168814201D10120704700207047000067
:102C8000C0000020F8000020001D0002F8C3B2A11F
:102C90006F735F756E73706563696669635F66699C
:102CA0006C65000074000020540000205B45525207
:102CB0005D2000002121214C4F535F4552524E4F61
:102CC0005F4D55585F50454E445F494E5F4C4F43F2
:102CD0004B2121210A00000070B5FC484FF4DC7440
:102CE0002146006800F08CFFF94D2860C8B12146EC
:102CF00001F02EFE281D406000600024064604EB13
:102D00004400296800EBC40001EB80014C811C31B8
:102D1000306800F0D4FA641CA4B20A2CEFD300206F
:102D200070BDEC4870BD2DE9F0470D4608989046FF
:102D3000011D8FB2B8F1000F07D04FF6FB7188422A
:102D400006D9E448801CBDE8F087E2480B30FAE77A
:102D5000DDB1D0B1DD4C05FB07F1206800F050FF7C
:102D60000646300014D001F045FC8146D848001DCD
:102D700000F0ACFA78B1484601F044FC31462068D6
:102D800000F055FFD348C01CDDE7D2480C30DAE72D
:102D9000D048401CD7E7CE48001D4468D4E9000164
:102DA0000860D4E90010486000201C3CE5802781C1
:102DB00026600121A18020826582A081E08104F14A
:102DC00014014960096008314960096008314960AF
:102DD0000960484601F016FC6089C8F80000002030
:102DE000B1E72DE9FF5F0446DDF838A00F469946AC
:102DF000002507F0010601F0FDFB8046B44904EB15
:102E0000440000EBC400096801EB8004A08810B105
:102E1000F80703D00BE0AF4D093585E02089D9F8DC
:102E20000010001F814202D2AA4D1E357CE0F80737
:102E300008D02089D9F80010001F814202D9A54D81
:102E4000143571E004EB4601088AE8B1401E08829F
:102E50004B4639462046029A00F070FAEEB3002045
:102E600004EBC000143000F031FAB8B3002E54D097
:102E70004FF0000004EB4000008A00F1010081B235
:102E80004ED14FF001004CE0BAF1000F05D092484E
:102E9000008850B18F4D6D1D46E0F80702D08D4D72
:102EA000153541E08B4D1C353EE08C48D0F800B024
:102EB00004EBC600143052464FF40051FFF7A6FB56
:102EC000404601F09FFB01F0D9FB01F093FB8046E7
:102ED000BBF804004106BBD501E007E008E020F0A4
:102EE0004000ABF804007B4DAD1D1DE00120B7E7AD
:102EF0008EB1002004EBC000806928384FF40051E7
:102F0000FFF7A7FB404601F07DFB01F0B7FB002077
:102F100004B0BDE8F09F0120ECE74FF00100A9E705
:102F2000002004EB40000182404601F06BFB284684
:102F3000EEE7F8B507460D4616461C4623463246D0
:102F40002946384600F0C9F9002806D10021334649
:102F50002A4638460094FFF744FFF8BD7FB582B09B
:102F600006460D461C46234604AA2946304600F074
:102F7000CDF9002806D1012104AB2A463046009441
:102F8000FFF72FFF06B070BD7FB582B006460D4635
:102F90001C46234604AA2946304600F0B7F900280B
:102FA000F0D1032104AB2A4630460094FFF719FF05
:102FB000E8E77FB582B006460D461C46234604AAC4
:102FC0002946304600F089F90028DBD1042104AB02
:102FD0002A4630460094FFF704FFD3E73FB581B09F
:102FE00005461C4604200390234603AA284602995E
:102FF00000F08CF9002806D1072103AB02AA28466D
:103000000094FFF7EEFE05B030BD1FB50199002911
:1030100005D0042201A9FFF7A1FF04B010BD2D487F
:103020001130FAE72DE9F047044689461746002596
:103030000A2C01D3002086E6B9F1000F05D037B184
:1030400001F024FC18B100207DE600207BE601F0B1
:10305000D1FA80461E4904EB440000EBC400096825
:1030600001EB8006B08808B3484601F056F90546E2
:1030700028001BD1D7B1194804683A464FF40051D3
:1030800006F12400FFF7C2FA404601F0BBFA01F056
:10309000F5FA01F0AFFA8046A088410603D520F08A
:1030A0004000A08002E0256D00202065404601F030
:1030B000A9FA284647E62DE9F04104460E46174690
:1030C0000A2C0DD303481830BDE8F081F800002029
:1030D000C8000020010600025400002074000020F7
:1030E00066B101F087FA05463946304601F031F9FC
:1030F00038B1284601F086FABB48E5E7BA48401ED9
:10310000E2E7BA4904EB440000EBC400096801EBB4
:103110008004A08848B104F1240000F0D7F850B131
:10312000284601F06FFA0020CEE7284601F06AFA3F
:10313000AD481138C8E7A46A283C4FF40051204636
:10314000FFF787FA304601F0E8F82065284601F0DD
:1031500059FA01F093FAE6E72DE9F04104460A2C0A
:1031600002D3A1481638AFE701F044FA06469F495A
:1031700004EB440000EBC400096801EB8004A08864
:10318000C8B104F1140000F0A1F8974D133DA8B1A7
:1031900004F11C00074600F099F888B104F12400FE
:1031A00000F094F870B1608A218A0844E18888426E
:1031B0000ED0EC1C07E08C4C113C04E02C4602E0E5
:1031C0002C4600E02C46304601F01CFA20467BE7F6
:1031D000256800202060A08084483946001D00F04A
:1031E0006EF8304601F00EFA814829460068BDE8C5
:1031F000F04100F01CBD2DE9F04106460C460025CB
:10320000002C04D00A2E05D377480D385CE77648A9
:10321000001F59E71C21204601F09AFB01F0EAF952
:103220000346724906EB460000EBC600096801EB55
:103230008000818881B12660C188A1800189E180F8
:1032400081892181C1896181018AE181418AA181CC
:103250008169283901270BE0634D113D2AE091F87F
:1032600010C0266907FA0CF216432661C96A28398C
:103270000A1A1432F3D1016A28393A4607E00F7C62
:10328000666902FA07F73E436661C96A28390E1A71
:103290000C36F4D1816A2839174608E091F810C03D
:1032A000A66907FA0CF21643A661C96A28390A1AF8
:1032B000121DF3D1184601F0A5F9284604E742682B
:1032C0004A6008604268116041607047416881420D
:1032D00001D1012070470020704710B50A2802D3A1
:1032E00041480D3810BD49B142B1106848B15BB1D9
:1032F00001F0CCFA40B13C48C01E10BD3A480C3831
:1033000010BD39480B3810BD002010BD10B50A287B
:1033100002D335480D3810BD41B1106848B15BB1DA
:1033200001F0B4FA40B13048123810BD2E480938C7
:1033300010BD2D48083810BD002010BD2DE9F0410A
:10334000044616461F4611F003004FF000030BD051
:10335000012812D003281AD026A001F03FFCBDE8B6
:10336000F04126A001F03ABCA089E588421CAA429F
:1033700001D1A38113E0A28111E0A08918B1401E00
:10338000A081A0890BE0E088401EA081F9E7E089D8
:10339000E588421CAA4201D1E38100E0E281228952
:1033A000236800FB0235480707D5C80702D03068FC
:1033B000286089E62868306086E6C8070AD031466A
:1033C00028463A6801F0ABFA20892D1F2844396855
:1033D000016079E6281F10440468294622463046D9
:1033E00001F09DFA3C606FE61B060002C800002059
:1033F000F80000205B4552525D200000696E766146
:103400006C6964207175657565206F706572617493
:10341000652074797065210A000000002DE9F041F3
:10342000BC4840600060BC484FF4A071006800F0E8
:10343000E7FBB84D2D1F286090B1002400262F1DFA
:10344000286800EB0411CC8021F8086B386800F084
:1034500053F9641CA4B2142CF2D30020BDE8F0810F
:10346000AE48FBE72DE9F84F06460F461546002DFE
:1034700009D0DFF8ACA24FF00009BE4207D9A74C33
:103480000834514610E0A548801CBDE8F88F01F0D3
:10349000B1F880469F4800F036F970B1404601F01F
:1034A000B1F89E4CE41C5146002322469DA0CDF865
:1034B000009000F0BDFF2046E7E796484368D3E957
:1034C00000010860586853F8081948605E800120C0
:1034D00018809F8003F1080464602460D888286005
:1034E000404601F08FF80020CFE70A464FF6FF7103
:1034F000B8E70A460121B5E72DE9F843DFF81C8259
:10350000874D002708F10108142802D344462946B4
:1035100026E08049091F096801EB001401F06AF8F0
:103520000646208880B104F10800804600F0EBF8E0
:1035300080B14146774800F0DFF82780304601F03F
:1035400061F80020BDE8F883304601F05BF844469E
:10355000294605E0304601F055F8704C09342946FB
:10356000002322466FA0009700F062FF2046E9E7A3
:103570002DE9F8438946694D00276D1CDFF8A081CD
:10358000142808D300232A46414666A0009700F07D
:103590004FFF2846D6E75F49091F096801EB001471
:1035A00001F028F80646208840B1608890B1401E9E
:1035B0006080304601F026F80020C3E7304601F075
:1035C00021F800232A46414656A0009700F030FF1C
:1035D0002846B7E7B9F1000F0BD001F057F958B101
:1035E0004E4C641D54A001F0F9FA55A001F0F6FA12
:1035F00028E04A4C241D25E05A48008840B1474C39
:10360000A41D4DA001F0EAFA57A001F0E7FA19E075
:103610005E480568AC614A46082104F10800FEF7DF
:10362000F5FF304600F0EEFF01F028F8287940065B
:1036300014D500F0DFFF0646A88820F04000A880DF
:10364000364CE41D304600F0DDFF002322464146A3
:1036500034A0009700F0ECFE204673E7002071E7ED
:103660002DE9F8432B49091F096801EB00142B4F82
:103670007F1C142801D3384664E700F0BBFF0546E1
:103680002088DFF89C80002688B1A0886188884265
:1036900019D1284600F0B6FF204C002308342246FA
:1036A000414620A0009600F0C3FE20464AE7284687
:1036B00000F0A8FF00233A4641461AA0009600F009
:1036C000B7FE38463EE704F1080000F01CF838B1B8
:1036D0006088401C6080284600F094FF002031E79D
:1036E000E068283886610821FEF7B3FF284600F01D
:1036F00089FF00F0C3FFF1E742684A600860426852
:103700001160416070474168814201D101207047DA
:1037100000207047D8000020F800002000070002B9
:10372000F8C3B2A16F735F756E7370656369666984
:10373000635F66696C6500005B4552525D20000066
:103740002121214C4F535F4552524E4F5F53454DFF
:103750005F50454E445F494E544552522121210A43
:1037600000000000540000202121214C4F535F45F0
:1037700052524E4F5F53454D5F50454E445F494E48
:103780005F4C4F434B2121210A00000074000020B0
:103790004068884201D100207047486820F04040CE
:1037A00008440830704770B504460E462546002D83
:1037B00001D0582E01D8002070BD3146204601F0BE
:1037C000C7F8AE6050342C606C60606820F08040B8
:1037D0006060002020606068583E66F31D006060F5
:1037E000012070BD30B50023002802D019B1426815
:1037F0000BE0012030BD012030BD5468650003D5C9
:1038000024F04044234408331268002AF5D182682A
:103810009A4201D2012030BD4B6080680860C01A16
:10382000886097480268CA6040680861002030BD1F
:1038300010B586B00446142101A801F089F801A949
:103840002046FFF7CFFF06B010BD2DE9F041064638
:103850000D460024A046002E07D000F0CBFE074600
:10386000ED1C25F00305706813E00020BDE8F08131
:1038700041684A000CD421F04041A94208D324B148
:10388000626822F040428A4202D90446A94220D00E
:1038900000680028ECD1E4B3606820F04040401B91
:1038A000082816D962190832506820F0804050600C
:1038B0006168491B083961F31D005060146021469E
:1038C0003046FFF765FF28B30260606865F31D00AE
:1038D0006060606820F0004040F08040606004F16B
:1038E000080867498868284408308860CA68904298
:1038F00000D9C8600868401C08607068406820F003
:103900004040B0F5806F02D23046FFF791FF384655
:1039100001E004E00BE000F075FE4046A6E759A088
:1039200001F05CF9294659A001F058F9E5E7726009
:10393000CBE770B51446002806D029B1042C03D378
:10394000621E1546144201D0002070BD2144091F9B
:10395000FFF77BFF0028F8D00119491EA9438842D0
:10396000F3D0081A40F0004041F8040C084670BD3E
:103970002DE9F04104460D460126002C17D0B5B1C3
:1039800055F8040C002802DA20F000402D1A2068B7
:10399000A84203D860680830A8420AD239A001F0D2
:1039A0001DF9294645A001F019F900205EE7012024
:1039B0005CE700F01FFE0746A5F1080250684000D2
:1039C0000ED5206890420DD01168814208D36068FE
:1039D0000830814204D82046FFF7DAFE904201D039
:1039E000002631E0506820F080405060244D20F0E7
:1039F000404000F10803A9688B4204D8081A08382F
:103A0000A86000E00246106868B141684900F9D535
:103A100009E051680B44083363F31D01516061688C
:103A2000814200D1626011462046FFF7B1FE10B11D
:103A300043685900EDD511462046FFF7A9FE00B1B5
:103A400002606868401C6860384600F0DBFD304664
:103A50000CE70B48C068704701460020002901D0E0
:103A600049680AE0012070474A68530004D422F0F4
:103A70004042824200D9104609680029F4D17047BB
:103A8000E00000205B4552525D20000074686572C2
:103A9000652773206E6F7420656E6F756768207779
:103AA000686F6C6520746F20616C6C6F6320257883
:103AB000204279746573210A00000000307825786F
:103AC000206F7574206F662072616E6765210A0031
:103AD000103070472DE9F84F05468846DFF890A270
:103AE000DAF800402746002D02D0B8F1500F02D876
:103AF0000120BDE8F88FA80701D00120F9E700F008
:103B000079FD814605EB08061CE0A0682044A5422B
:103B100001D8A64203D8854212D2864210D395A07E
:103B200001F05CF8A0683246204400902346294604
:103B300092A001F053F8484600F064FD0120D8E758
:103B40002746E468002CE0D141462846FFF72BFECB
:103B500088B1B8F5805F03D3284600F06BFA78B1DE
:103B6000DAF8000088B1FD600020E860484600F007
:103B700049FD0020BDE7484600F044FD0120B8E7BC
:103B8000484600F03FFD0120B3E7CAF80050EBE7DC
:103B900086488749091A9DE770B504460125002C1F
:103BA0000AD000F027FD0646714801688C4205D115
:103BB000C968016000250DE0284670BD0A4607E08F
:103BC0008C4203D1C868D060002503E00A46C9686A
:103BD0000029F5D1204600F0C2FA304600F012FD6F
:103BE000284670BD70B562480468002504E06D1C6D
:103BF0002046FFF71DFEE468002CF8D1284670BD72
:103C000070B504460D460020002C0DD0002D0BD0C1
:103C10002946204600F039FA002805D129462046D9
:103C2000BDE87040FFF711BE70BDFFF782BE70B5F2
:103C300005460C46002D0ED06CB12146284600F0FA
:103C40005EFA012803D021462846FFF791FE01289D
:103C500003D0012070BD012070BD002070BD2DE992
:103C6000F04780460D4614464FF00009002C02DA5A
:103C70000020BDE8F08700F0BDFC074605B154B157
:103C800075B12946404600F08DFA411C10D084429F
:103C90000CD9064617E029464046FFF7C8FF23E047
:103CA00021464046FFF7ACFF81461DE026460AE06C
:103CB00055F8040C002801DA0020DAE720F040462D
:103CC000A64200D3264621464046FFF799FF81468B
:103CD000B9F1000F08D032462946484600F01FFED1
:103CE00029464046FFF7A3FF384600F08BFC4846C4
:103CF000BFE730B58BB005460C4606A92846FFF74E
:103D000071FD10B101200BB030BD069820600798FE
:103D100060600898A0600998E0600A98206101A995
:103D2000284600F069FA08B10120ECE70698206007
:103D300003990798401A6060039908980844A060A6
:103D4000049909980844E06005990A98084420619C
:103D50000020D8E770B505462846FFF77DFE0446EB
:103D6000284600F086FA844200D9204670BD000043
:103D7000F00000205B4552525D200000706F6F6CB8
:103D8000205B25702C20307825782920636F6E66A3
:103D90006C696374207769746820706F6F6C205B46
:103DA00025702C2030782578290A000098060020FC
:103DB0000050002070B505460C462C6004F11F0031
:103DC000C108281D00F0C4FDE00608D004F01F0162
:103DD0004FF0FF308840610905EB8101486070BDFC
:103DE00002688A4201D8002070474A0900EB82002D
:103DF00001F01F024068012191400840F4D00120E9
:103E000070474A0900EB8202121D0068884206D9F9
:103E100001F01F030121106899408843106070472A
:103E200030B502C81F314B090022002107E00468A9
:103E3000641C02D00468E34308E0491C001D994259
:103E4000F5D34FF0FF3030BD5B08521C002BFBD187
:103E5000531E01259D402C43046002EB4110401E7F
:103E600030BD03460846002809DB40F01F021968F0
:103E70004B1E934200D24A1E00F01F00101A7047DA
:103E80000021026806E000EB81035B680BB10020B3
:103E90007047491CB1EB521FF5D3D3060BD000EB92
:103EA000810002F01F0240684FF0FF3191408843CB
:103EB00001D000207047012070472DE9F0410D46E8
:103EC0001F4607F11F01042303EBD1018E18761E54
:103ED000541EA64315446D1EA54305FB07F131444E
:103EE0000C31FFF7B2FC044644B1256004F10C002C
:103EF000A060811961603946FFF75CFF2046BDE88C
:103F0000F081FFF735BD10B50446A068FFF788FFC4
:103F1000002801DA002010BDD4E9002102FB0010C6
:103F200010BD10B503465868081A1A68B0FBF2F4C1
:103F3000B0FBF2F102FB110000280DD19868016876
:103F4000A14209D92146FFF74BFF28B121469868C5
:103F5000FFF757FF012010BD002010BD10B503462C
:103F60000C4621469868FFF73BFF20B1D3E90010CB
:103F700001FB040010BD002010BD05C800FB01209E
:103F8000704710B542688A1A0368B2FBF3F4B2FBBB
:103F9000F3F103FB1121002909D180680168A142D6
:103FA00005D92146FFF71CFF08B1204610BD4FF090
:103FB000FF3010BD806800687047806860E730B5EA
:103FC00085680024002306E019462846FFF708FF0D
:103FD00000B1641C5B1C28689842F5D8204630BDAF
:103FE00010B51C4603680B60816809681160FFF713
:103FF000E6FF206010BD10B542688A1A0368B2FB64
:10400000F3F1B2FBF3F403FB1422002A08D1806819
:1040100002688A4204D9FFF7E3FE08B1012010BD0F
:10402000002010BD4DF6DE62028081700021C1705B
:10403000001D70472DE9F05F83465846FFF748FDA5
:10404000074600240025A1464FF010084FF4007ADF
:1040500008FA04F1BAFBF1F307EB04163160736060
:10406000C6F80890F06808B16D1C05E00422091D2F
:104070005846FFF722FFF060641C042CE8D315B10A
:104080000020BDE8F09F0120FBE770B50E46FFF76A
:104090001FFD05460024802E01D9002070BD05EBD0
:1040A00004100068B04225D300F0A4FA064605EBE0
:1040B0000414D4E90110884204D3304600F0A2FA77
:1040C000002070BDE06880B1FFF71DFF05463DB1DF
:1040D00028462168FFF7A6FF0546A068401CA0609F
:1040E000304600F08FFA284670BD304600F08AFA5C
:1040F000002070BD641C042CD1D3002070BD2DE9BC
:10410000F0410D46FFF7E4FC0646002700242D1F72
:104110002888A0F55E41DE3902D00020BDE8F0819C
:10412000A87806EB04110968884213D800F062FAF7
:10413000804606EB04142946E068FFF7F2FE0128EA
:1041400003D10127A068401EA060404600F05AFA43
:104150003846E3E7641C042CE3D30020DEE72DE9B6
:10416000F0478246BAF1000F1AD05046FFF7B0FC74
:10417000074600244FF010084FF4007908FA04F6BF
:10418000B9FBF6F007EB04152E606860E96821B111
:104190005046FFF7B6FE0020E860641C042CEDD307
:1041A000BDE8F0872DE9F0478846FFF791FC064609
:1041B0004FF0FF37002438F8040DA0F55E41DE39DA
:1041C00004D198F80200316B884201D93846E7E7FC
:1041D00000F010FA814606EB04154146E868FFF747
:1041E0000AFF012800D12F68641C042CF3D3484631
:1041F00000F008FA3846D3E72DE9FE4F0F460021BC
:104200000291019100910025002689468A460024EA
:10421000002F22D008B3FFF75BFC83460BEB04189A
:104220006B4601AA02A9D8F80C00FFF7D9FE009945
:10423000029801FB0055019901FB0066D8F80800BF
:104240008144D8F80410081A8244641C042CE5D375
:10425000AE4204D20120BDE8FE8F0120FBE73E60A4
:104260007D60701BB860C7F80C90C7F810A00020E4
:10427000F1E73EB5FFF72CFC0546002002900190C7
:104280000090032405EB0410C06850B16B4601AAEE
:1042900002A9FFF7A5FEDDE90001884201D00298DE
:1042A0003EBD641E002CEDDA00203EBD70B50D460B
:1042B00016460446002802D00EB1102D01D201206E
:1042C00070BD800701D0012070BD00F093F9034656
:1042D000F61D26F003002060103DB5FBF0F0606095
:1042E0000025A560606820B104F11000E0600021A5
:1042F00009E0184600F086F9012070BD22680244EA
:1043000002601046491C6268521E8A42F6D8056057
:10431000184600F077F9002070BD70B505460024FE
:10432000002812D000F066F905F10C010A683AB1D4
:10433000144622680A602E492160A968491CA960B8
:1043400000F060F91CB1201D70BD002070BD002080
:1043500070BD2DE9F0410D460446012600280FD01E
:1043600075B100F047F903462D1F22680120B2B154
:10437000291B1039B1FBF2F702FB17177FB902E0D6
:104380000120BDE8F081B1FBF2F261688A4206D2F9
:1043900017492868884201D0012000E0002030B988
:1043A000E0682860E560A068401EA060002618460E
:1043B00000F028F93046E4E70A46002806D0002A33
:1043C00004D001681046091F00F0C2BA704710B54A
:1043D00000280AD049B142B13BB144680C60816801
:1043E000116000681860002010BD012010BD0000A1
:1043F000A55A5AA54218521E491E824202D922EAE3
:10440000010070478843704770B50546002400F0EE
:104410003DFA00280BD12DB12846FDF733FA0446AA
:1044200004B901242046BDE87040FEF74EB870BDC7
:10443000F8B50E46069D074C2468002C02D0314684
:104440000095A0470448864201D00020F8BD002016
:10445000F8BD0000F4000020F8C3B2A132480168A2
:1044600041F470010160704700F0C4F8FEE72F4985
:1044700010200860704710B500F068F904463CB1A0
:104480002BA000F0ABFB2CA000F0A8FB204610BD39
:1044900000F08CF8204610BD10B5FFF7E8FF2C495E
:1044A0002A480860FFF774FB044644B120A000F0DE
:1044B00095FB214627A000F091FB204610BDFDF79B
:1044C000EBFB04463CB11AA000F088FB28A000F0EA
:1044D00085FB204610BDFDF707FEFEF79FFF002875
:1044E000F8D1FEF733FA0028F4D1FEF7F5FB0446C5
:1044F0003CB10FA000F072FB22A000F06FFB204641
:1045000010BDFCF774FE04463CB109A000F066FB48
:1045100021A000F063FB204610BDFEF7F5F9FDF782
:1045200057FD0028F8D110BD88ED00E064000020A0
:104530005B4552525D2000006F735469636B537486
:10454000617274206572726F720A00009806002012
:10455000F80000206F734D656D53797374656D4974
:104560006E6974206572726F722025640A00000003
:104570006F735461736B496E6974206572726F72E8
:104580000A0000006F735175657565496E69742086
:104590006572726F720A00006F735377546D7249BF
:1045A0006E6974206572726F720A000072B62C48D0
:1045B0002C49026841EA020101602B484FF00101D9
:1045C00001602A484168016001688A884FF0100341
:1045D00042EA03028A80D1F800C00CF1240CBCE846
:1045E000FF008CF309884FF0020C8CF31488AE4660
:1045F00062B63047EFF3108072B67047EFF3108069
:1046000062B6704780F31088704719484FF08051A8
:1046100001607047EFF3108C72B6164A126822B12F
:104620002DE900509047BDE80050EFF3098020E9E4
:10463000F01F0E4D4FF010082E683060B78827EA43
:104640000807B78068682860878847EA0807878076
:104650000168B1E8F01F81F309888CF31088704776
:1046600020ED00E00000FFFF70000020740000203B
:1046700004ED00E058000020FFF7C7BF10B5FFF7BA
:10468000B9FF0446FCF74FFD2D49283848600968FA
:10469000814202D02B48008820B12046BDE810405E
:1046A000FFF7B0BF2046FFF7ADFFBDE81040FFF7B2
:1046B000ACBF72B6FEE770B506460D4614464FF025
:1046C000CA322946204600F03CF94FF0CC30206039
:1046D000601944384FF0043101604FF005314160FA
:1046E0004FF0063181604FF00731C1604FF0083163
:1046F00001614FF0093141614FF0103181614FF09C
:104700001131C1610021016246624FF001318162C5
:104710004900C1624FF0033101634FF01231416330
:10472000AFF2710181630849C1634FF08071016488
:1047300070BDBFF34F8F30BFBFF36F8F7047000066
:1047400074000020540000200B23000810B54948D5
:104750000068002803D04FF47A72904201D2464894
:1047600010BDB0FBF2F1454B1960454900240C60C7
:104770004C60B0FBF2F0401EB0F1807F01D301200D
:104780000AE04FF0E02148613E4AF020107000201E
:104790008861072008610020012804D03A490120DF
:1047A0000860002010BD3448801C10BD10B5FFF714
:1047B00021FF4FF0E0218C69324A1F3A1268520102
:1047C00003D589692D4A12688C18FFF71BFF204614
:1047D00010BD2DE9F04106460F46FFF70BFF0146DD
:1047E00027480CC84FF0E0208469264D1F3D2D68F6
:1047F0006D0103D58469521C43F100031F4805680D
:104800000020A2FB05C803FB058302FB00332A1B23
:104810001CEB0202434133603A60BDE8F0410846B8
:10482000FFF7F0BE2DE9F04105460E46FFF7E2FE28
:10483000014613480CC84FF0E02044698069201AF3
:10484000104F1F3F3F687F0102D5521C43F1000308
:10485000A2FB04C803FB0483002702FB07331CEB05
:1048600000027B412B603260BDE8F0410846FFF753
:10487000C9BE00000000002000040002B0000020BB
:10488000A800002023ED00E09C000020EFF305804D
:104890007047FFF7BFBE07480068002801D0FEF749
:1048A0001DB80548D0E90012491C42F1000206C0BB
:1048B000704700009C000020A80000202DE9F05F58
:1048C0000546002092469B4688460646814640247F
:1048D0001BE0284641464746224600F0FFF8534673
:1048E0005A46C01A914110D311461846224600F08C
:1048F000E6F82D1A67EB01084F46224601200021F9
:1049000000F0DDF817EB00094E41201EA4F1010470
:10491000DFDC484631462A464346BDE8F09F40EA80
:1049200001039B0703D009E008C9121F08C0042A2D
:10493000FAD203E011F8013B00F8013B521EF9D214
:104940007047D2B201E000F8012B491EFBD270473C
:104950000022F6E710B513460A4604461946FFF74B
:10496000F0FF204610BD10B5044604E00B7800F8B7
:10497000013B03B1491C521EF8D2204610BD2DE95F
:10498000F04D81EA030404F0004B21F00045144689
:104990004FF0000A23F0004150EA050220D054EA0B
:1049A00001021DD0C5F30A570246C5F31303C1F334
:1049B0001300C1F30A5640F4801543F48013A7EBAB
:1049C0000608101BD64608F2FD3873EB050002D32B
:1049D00008F1010801E092185B41B8F1000F03DA19
:1049E00000200146BDE8F08D00204FF480110646FE
:1049F00084460EE0171B73EB050705D3121B63EB10
:104A0000050306434CEA010C49084FEA30009218AE
:104A10005B4150EA0107EDD152EA030012D082EA6D
:104A2000040083EA0501084305D0101BAB4106D200
:104A30000122002306E000224FF0004302E06FF065
:104A4000010253101AEB06004CEB085110EB0A0060
:104A500041EB0B01BDE8F04D00F050B80EB540F24F
:104A6000334102910021CDE900110A460B4600F0C6
:104A700054F803B000BD0EB540F23342029200225A
:104A8000CDE90022134600F048F803B000BDC1F3A1
:104A90000A52C1F3130140F2FF3341F480119A42EC
:104AA00002DA00200146704740F233439A42A2F2F4
:104AB000334202DC524200F011B8AFF30080202AEA
:104AC00004DB203A00FA02F1002070479140C2F165
:104AD000200320FA03F3194390407047202A04DB97
:104AE000203A21FA02F00021704721FA02F3D04067
:104AF000C2F12002914008431946704710B5141EB8
:104B000073F1000408DA401C41F1000192185B4186
:104B10001A4301D120F0010010BD2DE9F04D92465D
:104B20009B4611B1B1FA81F202E0B0FA80F2203274
:104B30009046FFF7C4FF04460F4640EA0A0041EAE8
:104B40000B0153465A46084313D0114653EA01005D
:104B500019D0C8F140025046FFF7C0FF05460E4687
:104B6000504659464246FFF7AAFF084305D00120A8
:104B700004E020463946BDE8F08D0020054346EAB2
:104B8000E0762C4337430A986305E40AA0EB08005B
:104B90000022FD0A44EA47540A3002D500200146AB
:104BA000E9E7010510196941DDE908450019694186
:104BB000BDE8F04DA2E70000064C074D06E0E068B6
:104BC00040F0010394E8070098471034AC42F6D354
:104BD000FBF7B2FAD0510008F05100080FB4054BB2
:104BE00010B503A9044A029800F018F810BC5DF84B
:104BF00014FB0000EB0F0008FC00002002E008C8D6
:104C0000121F08C1002AFAD170477047002001E046
:104C100001C1121F002AFBD1704700002DE9FF4F90
:104C20008DB00F460546002606E025280BD0DDE9AD
:104C30000F1290476D1C761C28780028F5D111B012
:104C40003046BDE8F08F0024A246A1460122EC497F
:104C500000E0044315F8013F203B02FA03F008424C
:104C6000F7D128782A2810D06FF02F022878A0F1E9
:104C70003001092914D80AEB8A0102EB410144F002
:104C8000020400EB010A6D1CF0E701CF5FEA000AA5
:104C900003D544F40054CAF1000A44F002046D1C28
:104CA00028782E2817D115F8010F44F004042A287B
:104CB0000ED06FF02F022878A0F1300109290AD810
:104CC00009EB890102EB410100EB01096D1CF2E7E0
:104CD00057F8049B6D1C28786C280FD006DC4C28F4
:104CE00017D068280DD06A2814D104E0742810D099
:104CF0007A280FD10DE044F400140AE044F4801443
:104D000001E044F440146978814202D104F5801432
:104D10006D1C6D1C2A786E2A1FD00CDC632A31D0E2
:104D200004DC002A8BD0582A11D1A3E0642A68D071
:104D3000692A0CD165E0732A2ED004DC6F2A73D067
:104D4000702A04D19BE0752A6FD0782A6ED0104665
:104D5000DDE90F129047761C50E1C4F3025002289F
:104D600006D0032809D0042801CF09D0066045E108
:104D700001CFF117C0E9006140E101CF06803DE1BC
:104D800006703BE117F8040B8DF8000000208DF849
:104D90000100EB46012003E057F804BB4FF0FF3061
:104DA00061074FF0000102D40DE008F101018846CF
:104DB00049450FDA8045F8DB1BF808100029F4D1CB
:104DC00008E008F1010188468142FADB1BF808106F
:104DD0000029F6D1DDE90F23AAEB08008146214620
:104DE00000F036F9304400EB080604E0DDE90F126C
:104DF0001BF8010B9047B8F10108F7D2214648464D
:104E0000F7E00A21C4F302534FF0000B0891022B84
:104E100004D001CFC117032B09D00AE0FF1D27F0F2
:104E20000707F7E8020108E032E01FE020E000B2E7
:104E3000C117042B01D140B2C117031E71F1000349
:104E400007DA4FF0000CD0EB0C006CEB01012D23C6
:104E500002E0230504D52B238DF82430012303E041
:104E6000E30701D02023F7E7984658E00A2110E035
:104E700010210EE010204FF0000B08900CE01021E4
:104E80004FF0000B44F004044FF00809089103E0D0
:104E900008214FF0000B0891C4F30253022B04D0F9
:104EA00001CF0021032B06D006E0FF1D27F00707E6
:104EB000F7E8020103E080B2042B00D1C0B24FF04A
:104EC000000823072BD5702A07D0DDF820C08CF00E
:104ED000100C5CEA0B0C05D00EE040238DF824305A
:104EE000012308E050EA010306D030238DF8243076
:104EF0008DF8252002239846DDF820C08CF0080CA0
:104F00005CEA0B0C0BD150EA010301D1630706D513
:104F100030238DF824304FF00108A9F10109582AF7
:104F200004D038A20B9208AA0A920BE03AA2F9E741
:104F30005B46089AFFF7C2FC0B9B9B5C0A9A521EC9
:104F40000A92137050EA0102F2D10A98ADEB000008
:104F500000F1200B600702D524F4803401E04FF00B
:104F60000109D94502DDA9EB0B0000E0002000EBB0
:104F70000B0141440890AAEB010AE00306D4DDE9E5
:104F80000F232146504600F063F806444FF0000915
:104F900008E009A911F80900DDE90F12904709F1AD
:104FA0000109761CC145F4DBE0030CD5DDE90F23D4
:104FB0002146504600F04CF8064404E0DDE90F12AB
:104FC00030209047761C0899481E08900029F5DC8F
:104FD00008E00A980A990078491C0A91DDE90F1245
:104FE0009047761CBBF10001ABF1010BF1DC2146CF
:104FF0005046DDE90F2300F019F806446D1C1BE64E
:10500000092801003031323334353637383961629E
:105010006364656600000000303132333435363762
:105020003839414243444546000000002DE9F04133
:10503000044600251E461746880404D405E0394678
:105040002020B0476D1C641EF9D52846BDE8F081CC
:105050002DE9F041044600251E469046C80301D5BF
:10506000302700E02027880404D505E04146384673
:10507000B0476D1C641EF9D52846BDE8F0810000DC
:105080002D2D2D2D202020202020202020202020EC
:1050900020202020202020202020202020202D2DF6
:1050A0002D202020202D2D2D2D2D2D2D2D2020208B
:1050B0002D2D2D2D2D2D2D2D20202020202D2D2D61
:1050C0002D2D2D2D2D2D202020202D2D2D2D2D2D44
:1050D0002D2D2D2D2020202D2D2D2D2D2D2D2D2D27
:1050E0002D20202D2D2D2D2D2D2D2D2D2D20202031
:1050F0002D2D2D2D2D2D2D2D2D20202D2D2D2D2DFA
:10510000000000000D0A4E616D6520202020202047
:10511000202020202020202020202020202020208F
:1051200020202020544944202020205072696F7292
:1051300069747920202053746174757320202020B5
:10514000202020537461636B53697A6520202020EE
:1051500057617465724C696E65202020205374611C
:10516000636B506F696E742020546F704F66537478
:1051700061636B2020204576656E744D61736B20F2
:105180002053656D49440000252D3330732C2030A9
:1051900078252D35782C20252D3131642C20252D96
:1051A0003133732C203078252D3131782C20307814
:1051B000252D3131782C203078252D3130782C2058
:1051C0003078252D3131782C203078252D39780014
:1051D000F05100080000002000010000FC4B000816
:1051E000F052000800010020980500000C4C000857
:1051F00000A24A04000000000000000001020304B5
:105200000607080902040608000000000102030462
:105210000102030406070809000000000000000066
:10522000000000000000000000000000000000007E
:10523000000000000000000000000000000000006E
:10524000000000000000000000000000000000005E
:10525000000000000000000000000000000000004E
:10526000000000000000000000000000000000003E
:10527000000000000000000000000000000000002E
:10528000000000000000000000000000000000001E
:10529000000000000000000000000000000000000E
:1052A00000000000000000000000000000000000FE
:1052B00000000000000000000000000000000000EE
:1052C00000000000000000000000000000000000DE
:1052D00000000000000000000000000000000000CE
:1052E00000000000000000000000000000000000BE
:0400000508000131BD
:00000001FF
